:100000000C943D000C944F000C944F000C944F0046
:100010000C944F000C944F000C944F000C944F0024
:100020000C944F000C944F000C944F000C94510012
:100030000C944F000C944F000C944F000C944F0004
:100040000C944F000C944F000C944F000C944F00F4
:100050000C944F000C944F000C944F000C944F00E4
:100060000C944F000C944F00C400CA00D000D6007E
:10007000DC00E200E800EE00F40011241FBECFEF28
:10008000D8E0DEBFCDBF21E0A0E0B1E001C01D920D
:10009000A230B207E1F70E9498000C9406010C947C
:1000A00000001F920F920FB60F9211248F939F930F
:1000B000809100019091010101969093010180933C
:1000C00000019F918F910F900FBE0F901F90189578
:1000D0008FE288B981E085B9089584E088B981E02C
:1000E00085B908958AE388B981E085B908958CE3DC
:1000F00088B981E085B9089585E188B981E085B93D
:1001000008958DE388B915B808958FE388B915B8B7
:10011000089584E288B981E085B908958FE388B9AC
:1001200081E085B9089585E388B981E085B90895AE
:10013000569A559A549A219AE1E8F0E080818860B5
:100140008083A0E8B0E08C9180648C93808184608F
:10015000808383E294EF9093890080938800EFE698
:10016000F0E08081826080838FEF87B984B97894D2
:10017000E0910001F09101013197E930F105D0F5EE
:10018000EC5CFF4F0C9400010E946D005E985D9A3C
:100190005C9AEECF0E9472005E985D9A5C9AE8CFFE
:1001A0000E9477005E985D9A5C9AE2CF0E947C0084
:1001B0005E985D9A5C9ADCCF0E9481005E985D9AA1
:1001C0005C9AD6CF0E9485005E985D9A5C9AD0CFEB
:1001D0000E9489005E985D9A5C9ACACF0E948E0048
:1001E0005E985D9A5C9AC4CF0E9493005E985D9A77
:1001F0005C9ABECF0E9468005E985D9A5C9AB8CF08
:10020000EE0FFF1F0590F491E02D0994F894FFCFB5
:00000001FF
