:100000000C943D000C9477000C94A3000C94CE004B
:100010000C945A000C945A000C945A000C945A00F8
:100020000C945A000C945A000C945A000C945C00E6
:100030000C945A000C945A000C945A000C945A00D8
:100040000C945A000C945A000C945A000C945A00C8
:100050000C945A000C945A000C945A000C945A00B8
:100060000C945A000C945A002101240127012A0102
:100070002D01300133013601390111241FBECFEFAC
:10008000D8E0DEBFCDBF11E0A0E0B1E0EEE7F5E0E3
:1000900002C005900D92A230B107D9F721E0A2E08D
:1000A000B1E001C01D92A630B207E1F70E94EB015A
:1000B0000C94BD020C9400001F920F920FB60F9289
:1000C00011248F939F9380910101813049F4809195
:1000D000040190910501019690930501809304011C
:1000E0009F918F910F900FBE0F901F9018951F92A8
:1000F0000F920FB60F9211248F939F938FE99FE079
:100100000197F1F700C0000080910101811104C046
:1001100081E08093010110C080910001843051F48E
:100120001092010183E0809300011092050110926A
:10013000040102C0109201019F918F910F900FBE98
:100140000F901F9018951F920F920FB60F921124C7
:100150008F939F938FE99FE00197F1F700C0000014
:1001600080910001823049F483E080930001109275
:100170000501109204012C9804C082E080930001D4
:100180002C9A1092010110920501109204019F9186
:100190008F910F900FBE0F901F9018951F920F9286
:1001A0000FB60F9211241B9904C0109205011092F2
:1001B00004010F900FBE0F901F9018958FE288B921
:1001C00085B1856085B9089584E088B985B1856079
:1001D00085B908958AE388B985B1856085B90895A0
:1001E0008CE388B985B1856085B9089585E188B9C2
:1001F00085B1856085B908958DE388B928982A9AD4
:1002000008958FE388B928982A9A089584E288B9D6
:1002100085B1856085B908958FE388B985B185601A
:1002200085B9089585E388B985B1856085B9089554
:1002300001978930910500F58C5C9F4FFC010C946F
:10024000A8020E94E40008950E94EA0008950E9416
:10025000F00008950E94F60008950E94FC000895A1
:100260000E94010108950E94060108950E940C0158
:1002700008950E94120108950E94DE0008950F93D0
:100280001F93CF93DF93EC018FE39FE10197F1F789
:1002900000C000009E013695279536952795369526
:1002A0002795AFE4BBE10E94AE028C01169507953D
:1002B0001695079516950795C8010E9418015E9A34
:1002C0005D9A5C9A5F988FE39FE10197F1F700C018
:1002D000000028E532E0029FC001039F900D129FAD
:1002E000900D11249E01281B390BA9E8B8E80E9443
:1002F000AE0296958795929582958F7089279F700B
:1003000089270E9418015E9A5D9A5C985F9A8FE334
:100310009FE10197F1F700C000009E01A9E8B8E84D
:100320000E94AE029C0136952795329522952F703A
:1003300023273F7023274CE3429FC001439F900D2A
:1003400011249E01281B390B2C33310548F080E025
:1003500090E00E9418015E9A5D985C9A5F9A10C0C6
:10036000ADECBCEC0E94AE0296958795969587956C
:10037000969587950E9418015E9A5D985C9A5F9A9F
:100380008FE39FE10197F1F700C000009E01ADEC03
:10039000BCEC0E94AE0296958795969587959695AA
:1003A00087959C01220F331F880F991F880F991F73
:1003B000880F991F820F931F9E01281B390BC901BB
:1003C0000E9418015E985D9A5C9A5F9ADF91CF91C6
:1003D0001F910F910895579A549A559A569A219AB7
:1003E000299A589A5A9A5B9A2B9AE9E6F0E080810A
:1003F000826080838081886080838DB383608DBBC1
:10040000E8E6F0E0808181608083EBE6F0E08081C7
:1004100088608083E1E8F0E0808188608083A0E8E4
:10042000B0E08C9180648C9380818460808383E2CF
:1004300094EF9093890080938800EFE6F0E080814C
:100440008260808378948FEF87B984B92D982C9A35
:10045000C4E080910001823039F4809104019091D0
:1004600005010E943F01F5CF809100018330B1F575
:1004700080910101813091F58091040190910501F5
:100480000E943F01209104013091050180910201F9
:100490009091030128173907E1F610920101C093EA
:1004A0000001809100018430A1F62D9A2FEF81EE9A
:1004B00094E0215080409040E1F700C000002D986A
:1004C0002FEF81EE94E0215080409040E1F700C092
:1004D000000080910001843041F3BBCF8091000186
:1004E000833009F0B6CF809101018111B2CF8091A4
:1004F0000201909103010E943F01499910C080912F
:1005000002019091030101969093030180930201EF
:1005100080910201909103010E943F019ACF489976
:1005200098CF8091020190910301892B09F491CF1A
:1005300080910201909103010197909303018093B0
:10054000020180910201909103010E943F0181CF3D
:10055000EE0FFF1F0590F491E02D0994A29FB001CA
:10056000B39FC001A39F700D811D1124911DB29FE7
:0E057000700D811D1124911D0895F894FFCF88
:02057E00020178
:00000001FF
