S00C00006D61696E2E7372656373
S11300000C943D000C9477000C945A000C945A0004
S11300100C945A000C945A000C945A000C945A00F4
S11300200C945A000C945A000C945A000C945C00E2
S11300300C945A000C945A000C945A000C945A00D4
S11300400C945A000C945A000C945A000C945A00C4
S11300500C945A000C945A000C945A000C945A00B4
S11300600C945A000C945A00CB00CE00D100D4005A
S1130070D700DA00DD00E000E30011241FBECFEF5B
S1130080D8E0DEBFCDBF11E0A0E0B1E0E6EAF3E0E6
S113009002C005900D92A430B107D9F721E0A4E085
S11300A0B1E001C01D92A430B207E1F70E94E9005B
S11300B00C94D1010C9400001F920F920FB60F9272
S11300C011248F939F9380910101813049F4809191
S11300D00201909103010196909303018093020120
S11300E09F918F910F900FBE0F901F9018951F92A4
S11300F00F920FB60F9211248F93809101018111F9
S113010004C081E08093010105C082E08093000176
S1130110109201018F910F900FBE0F901F901895B0
S11301208FE288B98FE185B9089584E088B98FE1B9
S113013085B908958AE388B98FE185B908958CE378
S113014088B98FE185B9089585E188B98FE185B9CA
S113015008958DE388B98EE185B908958FE388B950
S11301608EE185B9089584E288B98FE185B908954F
S11301708FE388B98FE185B9089585E388B98FE164
S113018085B9089501978930910500F58C5C9F4FDE
S1130190FC010C94BC010E94950008950E949A00F1
S11301A008950E949F0008950E94A40008950E944B
S11301B0A90008950E94AE0008950E94B300089516
S11301C00E94B80008950E94BD0008950E94900006
S11301D00895579A569A559A549A519A219A529830
S11301E05A9AE9E6F0E0808182608083E89AE1E847
S11301F0F0E0808188608083A0E8B0E08C91806426
S11302008C9380818460808383E294EF909389004F
S113021080938800EFE6F0E08081826080837894A8
S11302208FEF87B984B9D4E0CCE359988091020167
S11302309091030180349140E1F410920101D09334
S11302400001599A3FEF81EE94E031508040904094
S1130250E1F700C0000059982FEF31EE84E02150FF
S113026030408040E1F700C00000809100018430FC
S113027041F38FE19EE40197F1F700C00000209163
S1130280020130910301A9E8B8E80E94C2019695E1
S11302908795929582958F7089279F7089270E94F0
S11302A0C2005E9A5D9A5C985F9A8FE19EE4019722
S11302B0F1F700C0000040910201509103019A013E
S11302C0A9E8B8E80E94C20196958795929582950F
S11302D08F7089279F708927C89F9001C99F300D0F
S11302E01124CA01821B930B8C33910548F080E0E2
S11302F090E00E94C2005E9A5D985C9A5F9A11C079
S11303009C01ADECBCEC0E94C20196958795969534
S11303108795969587950E94C2005E9A5D985C9A2F
S11303205F9A8FE19EE40197F1F700C000004091CD
S11303300201509103019A01ADECBCEC0E94C20190
S11303409695879596958795969587959C01220F06
S1130350331F880F991F880F991F880F991F820FC9
S1130360931F9A01281B390BC9010E94C2005E9891
S11303705D9A5C9A5F9A59CFEE0FFF1F0590F49136
S1130380E02D0994A29FB001B39FC001A39F700DFB
S1130390811D1124911DB29F700D811D1124911D89
S10903A00895F894FFCF5C
S10703A602012C011F
S9030000FC
