S00C00006D61696E2E7372656373
S11300000C943D000C9477000C949B000C94BE005F
S11300100C945A000C945A000C945A000C945A00F4
S11300200C945A000C945A000C945A000C945C00E2
S11300300C945A000C945A000C945A000C945A00D4
S11300400C945A000C945A000C945A000C945A00C4
S11300500C945A000C945A000C945A000C945A00B4
S11300600C945A000C945A001101140117011A013E
S11300701D01200123012601290111241FBECFEFF8
S1130080D8E0DEBFCDBF11E0A0E0B1E0E6E6F5E0E8
S113009002C005900D92A230B107D9F721E0A2E089
S11300A0B1E001C01D92A630B207E1F70E94DB0166
S11300B00C94B1020C9400001F920F920FB60F9291
S11300C011248F939F9380910101813049F4809191
S11300D00401909105010196909305018093040118
S11300E09F918F910F900FBE0F901F9018951F92A4
S11300F00F920FB60F9211248F93809101018111F9
S113010004C081E08093010110C08091000184301B
S113011051F41092010183E08093000110920501D3
S11301201092040102C0109201018F910F900FBE32
S11301300F901F9018951F920F920FB60F921124D3
S11301408F9380910001823049F483E08093000111
S113015010920501109204012C9804C082E080934F
S113016000012C9A109201011092050110920401D1
S11301708F910F900FBE0F901F9018951F920F92A2
S11301800FB60F9211241B9904C01092050110920E
S113019004010F900FBE0F901F9018958FE288B93D
S11301A085B1856085B9089584E088B985B1856095
S11301B085B908958AE388B985B1856085B90895BC
S11301C08CE388B985B1856085B9089585E188B9DE
S11301D085B1856085B908958DE388B928982A9AF0
S11301E008958FE388B928982A9A089584E288B9F3
S11301F085B1856085B908958FE388B985B1856037
S113020085B9089585E388B985B1856085B9089570
S113021001978930910500F58C5C9F4FFC010C948B
S11302209C020E94D40008950E94DA0008950E945E
S1130230E00008950E94E60008950E94EC000895ED
S11302400E94F10008950E94F60008950E94FC00A7
S113025008950E94020108950E94CE0008950F930C
S11302601F93CF93DF93EC018FE39FE10197F1F7A5
S113027000C000009E013695279536952795369542
S11302802795AFE4BBE10E94A2028C011695079565
S11302901695079516950795C8010E9408015E9A60
S11302A05D9A5C9A5F988FE39FE10197F1F700C034
S11302B0000028E532E0029FC001039F900D129FC9
S11302C0900D11249E01281B390BA9E8B8E80E945F
S11302D0A20296958795929582958F7089279F7033
S11302E089270E9408015E9A5D9A5C985F9A8FE361
S11302F09FE10197F1F700C000009E01A9E8B8E86A
S11303000E94A2029C0136952795329522952F7062
S113031023273F7023274CE3429FC001439F900D46
S113032011249E01281B390B2C33310548F080E041
S113033090E00E9408015E9A5D985C9A5F9A10C0F2
S1130340ADECBCEC0E94A202969587959695879594
S1130350969587950E9408015E9A5D985C9A5F9ACB
S11303608FE39FE10197F1F700C000009E01ADEC1F
S1130370BCEC0E94A20296958795969587959695D2
S113038087959C01220F331F880F991F880F991F8F
S1130390880F991F820F931F9E01281B390BC901D7
S11303A00E9408015E985D9A5C9A5F9ADF91CF91F2
S11303B01F910F910895579A569A559A549A519AA3
S11303C0219A23982B9A52985A9AE9E6F0E0808170
S11303D08360808380818C6080838DB383608DBBD8
S11303E0E8E6F0E0808181608083EBE6F0E08081E4
S11303F088608083E1E8F0E0808188608083A0E801
S1130400B0E08C9180648C9380818460808383E2EB
S113041094EF9093890080938800EFE6F0E0808168
S11304208260808378948FEF87B984B925982D9A58
S11304305098589A59982C9AC4E0809100018230BF
S113044039F480910401909105010E942F01F5CFA8
S1130450809100018330B1F580910101813091F5E3
S113046080910401909105010E942F0120910401C3
S113047030910501809102019091030128173907F9
S1130480E1F610920101C0930001809100018430D3
S1130490A1F6599A2FEF81EE94E0215080409040CC
S11304A0E1F700C0000059982FEF81EE94E021504D
S11304B080409040E1F700C000008091000184304A
S11304C041F3BBCF80910001833009F0B6CF809116
S11304D001018111B2CF80910201909103010E9428
S11304E02F011D9910C08091020190910301019682
S11304F09093030180930201809102019091030182
S11305000E942F019ACF489998CF8091020190912F
S11305100301892B09F491CF809102019091030189
S113052001979093030180930201809102019091BD
S113053003010E942F0181CFEE0FFF1F0590F4915C
S1130540E02D0994A29FB001B39FC001A39F700D39
S1130550811D1124911DB29F700D811D1124911DC7
S10905600895F894FFCF9A
S105056602018C
S9030000FC
