:100000000C943D000C945A000C945A000C945A0025
:100010000C945A000C945A000C945A000C945A00F8
:100020000C945A000C945A000C945A000C945C00E6
:100030000C945A000C945A000C945A000C945A00D8
:100040000C945A000C945A000C945A000C945A00C8
:100050000C945A000C945A000C945A000C945A00B8
:100060000C945A000C945A00AE00B100B400B700D2
:10007000BA00BD00C000C300C60011241FBECFEFF0
:10008000D8E0DEBFCDBF11E0A0E0B1E0E8E5F3E0ED
:1000900002C005900D92A230B107D9F721E0A2E08D
:1000A000B1E001C01D92A330B207E1F70E94CC007D
:1000B0000C94AA010C9400001F920F920FB60F929D
:1000C00011248F939F9380910001909101010196DB
:1000D00090930101809300019F918F910F900FBE2B
:1000E0000F901F9018958FE288B98FE185B9089518
:1000F00084E088B98FE185B908958AE388B98FE1F2
:1001000085B908958CE388B98FE185B9089585E1B3
:1001100088B98FE185B908958DE388B98EE185B9F5
:1001200008958FE388B98EE185B9089584E288B98E
:100130008FE185B908958FE388B98FE185B9089576
:1001400085E388B98FE185B90895019789309105D4
:1001500000F58C5C9F4FFC010C9495010E94780087
:1001600008950E947D0008950E94820008950E94D3
:10017000870008950E948C0008950E9491000895C0
:100180000E94960008950E949B0008950E94A0007E
:1001900008950E9473000895579A569A559A549A52
:1001A000519A219AE1E8F0E0808188608083A0E89C
:1001B000B0E08C9180648C9380818460808383E242
:1001C00094EF9093890080938800EFE6F0E08081BF
:1001D000826080838FEF87B984B97894D1E0CCE3D3
:1001E0005998809100019091010180349140D1F49F
:1001F000D0930201599A3FEF81EE94E03150804054
:100200009040E1F700C0000059982FEF31EE84E0F4
:10021000215030408040E1F700C000008091020191
:10022000813041F38FE19EE40197F1F700C00000B7
:100230002091000130910101A9E8B8E80E949B01DA
:1002400096958795929582958F7089279F708927BB
:100250000E94A5005E9A5D9A5C985F9A8FE19EE489
:100260000197F1F700C00000409100015091010199
:100270009A01A9E8B8E80E949B0196958795929506
:1002800082958F7089279F708927C89F9001C99F89
:10029000300D1124CA01821B930B8C33910548F059
:1002A00080E090E00E94A5005E9A5D985C9A5F9A5B
:1002B00011C09C01ADECBCEC0E949B01969587950A
:1002C00096958795969587950E94A5005E9A5D986C
:1002D0005C9A5F9A8FE19EE40197F1F700C00000FD
:1002E00040910001509101019A01ADECBCEC0E94DB
:1002F0009B019695879596958795969587959C01F0
:10030000220F331F880F991F880F991F880F991F7D
:10031000820F931F9A01281B390BC9010E94A50067
:100320005E985D9A5C9A5F9A5BCFEE0FFF1F059017
:10033000F491E02D0994A29FB001B39FC001A39F47
:10034000700D811D1124911DB29F700D811D11240E
:08035000911D0895F894FFCF00
:020358002C0176
:00000001FF
