:100000000C9434000C9446000C9446000C9446006A
:100010000C9446000C9446000C9446000C94460048
:100020000C9446000C9446000C9446000C94460038
:100030000C9446000C9446000C9446000C94460028
:100040000C9446000C9446000C9446000C94460018
:100050000C9446000C9446000C9446000C94460008
:100060000C9446000C94460011241FBECFEFD8E03C
:10007000DEBFCDBF21E0A0E0B1E001C01D92A33002
:10008000B207E1F70E9448000C94B8010C940000FC
:10009000CF93DF93CDB7DEB72E970FB6F894DEBFC0
:1000A0000FBECDBF85E089838CE28A838981880F6A
:1000B0008B8399818DEC989F812D1124869586954F
:1000C0008695880F282F220F220F820F292F281B99
:1000D000822F8C83898186958695882F90E0092EC2
:1000E000000CAA0BBB0BBC01CD010E942C01DC0152
:1000F000CB018D839E83AF83B8878981882F90E061
:10010000A0E0B0E0BC01CD010E942A01DC01CB01DE
:1001100020E030E040E850E4BC01CD010E94B8008E
:10012000DC01CB0189879A87AB87BC878981882FBF
:1001300090E09C012F5F3F4F44E6429FC001439FE8
:10014000900D11249E878D8781E48093000181E4C6
:100150008093010181E48093020180E090E02E967B
:100160000FB6F894DEBF0FBECDBFDF91CF910895DB
:100170000E94CC000C947E010E94770158F00E94EE
:10018000700140F029F45F3F29F00C946701511190
:100190000C94B2010C946D010E948F0168F39923B5
:1001A000B1F3552391F3951B550BBB27AA27621773
:1001B0007307840738F09F5F5F4F220F331F441F80
:1001C000AA1FA9F335D00E2E3AF0E0E832D09150B4
:1001D0005040E695001CCAF72BD0FE2F29D0660FA1
:1001E000771F881FBB1F261737074807AB07B0E8E4
:1001F00009F0BB0B802DBF01FF2793585F4F3AF0EA
:100200009E3F510578F00C9467010C94B2015F3F5A
:10021000E4F3983ED4F3869577956795B795F7956F
:100220009F5FC9F7880F911D9695879597F9089557
:10023000E1E0660F771F881FBB1F621773078407F3
:10024000BA0720F0621B730B840BBA0BEE1F88F702
:10025000E0950895E89409C097FB3EF49095809549
:10026000709561957F4F8F4F9F4F9923A9F0F92F7C
:1002700096E9BB279395F695879577956795B795FA
:10028000F111F8CFFAF4BB0F11F460FF1BC06F5FE0
:100290007F4F8F4F9F4F16C0882311F096E911C0F2
:1002A000772321F09EE8872F762F05C0662371F013
:1002B00096E8862F70E060E02AF09A95660F771F27
:1002C000881FDAF7880F9695879597F9089597F91B
:1002D0009F6780E870E060E008959FEF80EC0895EC
:1002E00000240A9416161706180609060895002415
:1002F0000A9412161306140605060895092E03948F
:10030000000C11F4882352F0BB0F40F4BF2B11F402
:1003100060FF04C06F5F7F4F8F4F9F4F089557FD61
:100320009058440F551F59F05F3F71F04795880F63
:1003300097FB991F61F09F3F79F0879508951216FA
:1003400013061406551FF2CF4695F1DF08C01616A6
:1003500017061806991FF1CF869571056105089457
:100360000895E894BB2766277727CB0197F908956E
:04037000F894FFCF2F
:00000001FF
